:10000000803102288731FD2F8731012F87310A2F58
:100010008731132F87311C2F8731252F87312E2FC2
:100020008731372F8731402F8731492F8731522F22
:100DB80072302100990023008C018D0121008C01E3
:100DC8008D0120008C018D010800F301F4017108E8
:100DD8007402031DF12E70087302031808001A30FC
:100DE800F200F830890BF62EF20BF62E00320130A5
:100DF800F3070030F43DEB2E5B2F20000C108C1411
:100E08000C118C118C130D128D12080020000C147B
:100E18008C140C118C158C170D128D1608002000DF
:100E28000C148C100C118C118C130D168D120800DB
:100E380020000C148C100C118C118C130D128D16B3
:100E4800080020000C108C100C118C158C170D123A
:100E58008D16080020000C108C100C158C118C13AA
:100E68000D128D16080020000C108C100C158C111A
:100E78008C130D128D12080020000C148C140C1108
:100E88008C158C130D128D16080020000C108C1078
:100E98000C118C118C130D128D12080020000C10EF
:100EA8008C100C118C158C130D128D1608007108FE
:100EB800003A0319602F6A2F700884000A30040270
:100EC8000318080080310435043E8200080086318A
:100ED800DC268731F901FA01F501F601FB01FC0175
:100EE80000307C020A3003197B020318B52F283022
:100EF800F7000030F800770878040319AA2F7C0857
:100F0800F1007B08F00087310027873120008D141D
:100F18000D110130F0000030F1008631E9268731EB
:100F28007C08F1007B08F00087310027873120001A
:100F38008D100D150130F0000030F1008631E926E2
:100F480087310130F7020030F83B7F2F0130FB0773
:100F58000030FC3D00307C020A3003197B02031C80
:100F68007B2F0430F7000030F80077087804031965
:100F7800E42F7608F1007508F000873100278731E3
:100F880020008D140D110130F0000030F100863181
:100F9800E92687317A08F1007908F00087310027BF
:100FA800873120008D100D150130F0000030F10060
:100FB8008631E92687310130F7020030F83BB92F36
:100FC8000130F9070030FA3D0A3079067A04031D2A
:100FD800F32FF901FA010130F5070030F63D0A3028
:100FE80075067604031DB52FF501F601F901FA011E
:080FF800B52F200087316B2F9B
:020000040001F9
:04000E0084CFFFDAC2
:00000001FF
